S00B000045564D2E7372656331
S11300000C942A000C9447000C9447000C9447006D
S11300100C9447000C9447000C9447000C94470040
S11300200C9447000C9447000C9447000C94470030
S11300300C9447000C9447000C9447000C94470020
S11300400C9447000C9447000C9447000C94470010
S11300500C94470011241FBECFE5D8E0DEBFCDBF0E
S113006010E0A0E6B0E0E4E6FCE002C005900D92EA
S1130070A037B107D9F710E0A0E7B0E001C01D92A6
S1130080A037B107E1F70E94AD030C9430060C943D
S1130090000040E00E94580008950E94C70108959E
S11300A041E00E94B302089540E00E94B302089523
S11300B0843409F471C0853448F4823499F183346A
S11300C008F04DC0813409F083C00FC0823651F16D
S11300D0833620F4813609F07BC007C0833609F4E7
S11300E03EC0843609F074C057C0413069F42AB365
S11300F081E090E0AC0102C0440F551F6A95E2F71D
S1130100BA01622B6ABB08952AB381E090E0AC0186
S113011002C0440F551F6A95E2F7BA016095622345
S11301206ABB0895413069F427B381E090E0AC01E3
S113013002C0440F551F6A95E2F7BA01622B67BBF0
S1130140089527B381E090E0AC0102C0440F551F2D
S11301506A95E2F7BA016095622367BB089541305E
S113016069F424B381E090E0AC0102C0440F551F50
S11301706A95E2F7BA01622B64BB089524B381E067
S113018090E0AC0102C0440F551F6A95E2F7BA0132
S11301906095622364BB0895413069F421B381E022
S11301A090E0AC0102C0440F551F6A95E2F7BA0112
S11301B0622B61BB089521B381E090E0AC0102C0E1
S11301C0440F551F6A95E2F7BA016095622361BB3B
S11301D00895843409F471C0853448F4823499F163
S11301E0833408F04DC0813409F083C00FC08236D7
S11301F051F1833620F4813609F07BC007C0833681
S113020009F43EC0843609F074C057C0413069F423
S11302102BB381E090E0AC0102C0440F551F6A95F6
S1130220E2F7BA01622B6BBB08952BB381E090E037
S1130230AC0102C0440F551F6A95E2F7BA016095FC
S113024062236BBB0895413069F428B381E090E0E8
S1130250AC0102C0440F551F6A95E2F7BA01622B44
S113026068BB089528B381E090E0AC0102C0440F5C
S1130270551F6A95E2F7BA016095622368BB089539
S1130280413069F425B381E090E0AC0102C0440F31
S1130290551F6A95E2F7BA01622B65BB089525B331
S11302A081E090E0AC0102C0440F551F6A95E2F76B
S11302B0BA016095622365BB0895413069F422B3A5
S11302C081E090E0AC0102C0440F551F6A95E2F74B
S11302D0BA01622B62BB089522B381E090E0AC01C5
S11302E002C0440F551F6A95E2F7BA016095622374
S11302F062BB0895843409F43DC0853440F48234EB
S1130300F9F0833450F5813409F040C00CC08236D2
S1130310B9F0833618F48136C9F505C08336E9F09F
S11303208436A1F527C02BB381E090E0AC0102C074
S1130330440F551F6A95E2F7BA0162276BBB089513
S113034028B381E090E0AC0102C0440F551F6A95C8
S1130350E2F7BA01622768BB089525B381E090E013
S1130360AC0102C0440F551F6A95E2F7BA01622737
S113037065BB089522B381E090E0AC0102C0440F54
S1130380551F6A95E2F7BA01622762BB0895843467
S113039009F451C0853440F4823439F18334C0F512
S11303A0813409F05AC00EC08236F9F0833620F445
S11303B0813609F052C006C0833651F1843609F003
S11303C04CC039C029B381E090E0062E02C0880FEA
S11303D0991F0A94E2F730E08223932302C0969592
S11303E087956A95E2F7982F38C026B381E090E0AC
S11303F0062E02C0880F991F0A94E2F730E0822388
S1130400932302C0969587956A95E2F7982F25C0A5
S113041023B381E090E0062E02C0880F991F0A944E
S1130420E2F730E08223932302C0969587956A957C
S1130430E2F7982F12C020B381E090E0062E02C0AC
S1130440880F991F0A94E2F730E08223932302C0B5
S1130450969587956A95E2F7982F892F08958434A5
S1130460D9F0853438F4823499F0833498F48134A3
S1130470A1F40CC0823661F0833618F4813669F435
S113048005C0833639F0843641F406C06ABB08954A
S113049067BB089564BB089561BB08958434D9F0A3
S11304A0853438F4823499F0833498F48134A1F497
S11304B00CC0823661F0833618F4813669F405C0C5
S11304C0833639F0843641F406C06BBB089568BBAB
S11304D0089565BB089562BB0895843409F1853499
S11304E038F48234A9F08334B8F48134E1F40CC0D4
S11304F0823671F0833618F48136A9F405C0833648
S113050059F0843681F40CC08BB380958BBB08956D
S113051088B3809588BB089585B3809585BB08957D
S113052082B3809582BB08958434D9F0853438F43D
S1130530823499F0833498F48134A1F40CC0823667
S113054061F0833618F4813669F405C0833639F0D6
S1130550843641F406C089B3089586B3089583B3FD
S1130560089580B30895843409F471C0853448F43F
S1130570823499F1833408F04DC0813409F083C08A
S11305800FC0823651F1833620F4813609F07BC0E6
S113059007C0833609F43EC0843609F074C057C0DE
S11305A0413069F42BB381E090E0AC0102C0440F08
S11305B0551F6A95E2F7BA01622B6BBB08952BB302
S11305C081E090E0AC0102C0440F551F6A95E2F748
S11305D0BA01609562236BBB0895413069F428B376
S11305E081E090E0AC0102C0440F551F6A95E2F728
S11305F0BA01622B68BB089528B381E090E0AC0196
S113060002C0440F551F6A95E2F7BA016095622350
S113061068BB0895413069F425B381E090E0AC01F2
S113062002C0440F551F6A95E2F7BA01622B65BBFD
S1130630089525B381E090E0AC0102C0440F551F3A
S11306406A95E2F7BA016095622365BB089541306B
S113065069F422B381E090E0AC0102C0440F551F5D
S11306606A95E2F7BA01622B62BB089522B381E076
S113067090E0AC0102C0440F551F6A95E2F7BA013D
S11306806095622362BB08956F70843451F18534A0
S113069038F48234C1F08334E8F4813441F50CC079
S11306A0823689F0833618F4813609F505C083361D
S11306B089F08436E1F415C08BB3807F8BBB8BB398
S11306C0682B6BBB089588B3807F88BB88B3682B85
S11306D068BB089585B3807F85BB85B3682B65BBF4
S11306E0089582B3807F82BB82B3682B62BB089576
S11306F06295607F843451F1853438F48234C1F0DA
S11307008334E8F4813441F50CC0823689F08336B1
S113071018F4813609F505C0833689F08436E1F48E
S113072015C08BB38F708BBB8BB3682B6BBB0895D9
S113073088B38F7088BB88B3682B68BB089585B372
S11307408F7085BB85B3682B65BB089582B38F70AA
S113075082BB82B3682B62BB08950E94A40581E426
S113076061E00E94490081E462E00E94490081E462
S113077063E00E94490081E464E00E94490081E44E
S113078065E00E94490080E690E00E94F40581E063
S113079068E00E94030684E690E00E94F40582E08B
S11307A061E00E94030688E690E00E94F40582E07E
S11307B068E00E9403068CE690E00E94F405CC24D5
S11307C0FF2400E010E00F2EF4E6BF2EF02DCAE067
S11307D0D0E081E461E00E944D00813009F041C025
S11307E0E12EE39463E00E94030689E08E1528F06D
S11307F0812F8F5C0E948C0529C019501A3568F42A
S11308008E2D6C2F0E942406192F805D0E948C056A
S1130810812F805D0E948C0519C093E69E15B0F46B
S11308208E2D6B2D0E942406805D0E948C058E2DDA
S11308306C2F0E942406192F0E942406892F805DA4
S11308400E948C05812F805D0E948C058FEF94E3BC
S1130850ACE081509040A040E1F700C000001E2DA4
S1130860B8CF81E462E00E944D00813009F041C0BC
S1130870E02EE3946C2F0E94030699E09E1528F065
S1130880802F8F5C0E948C0529C009500A3568F4BA
S11308908E2D6C2F0E942406092F805D0E948C05EA
S11308A0802F805D0E948C0519C0A3E6AE15B0F4BC
S11308B08E2D6B2D0E942406805D0E948C058E2D4A
S11308C06C2F0E942406092F0E942406892F805D24
S11308D00E948C05802F805D0E948C058FEF94E32D
S11308E0ACE081509040A040E1F700C000000E2D24
S11308F070CF81E463E00E944D00813009F043C071
S1130900EF2CE39482E063E00E94030699E09E15D5
S113091028F08F2D8F5C0E948C052AC08F2D895062
S11309208A3568F48E2D6C2F0E942406F92E805D82
S11309300E948C058F2D805D0E948C0519C0A3E652
S1130940AE15B0F48E2D6B2D0E942406805D0E949E
S11309508C058E2D6C2F0E942406F92E0E942406ED
S1130960892F805D0E948C058F2D805D0E948C05EF
S11309708FEF94E3ACE081509040A040E1F700C0D9
S11309800000FE2C26CF81E464E00E944D008130FB
S113099009F043C0DC2CD39482E06C2F0E94030640
S11309A099E09D1528F08C2D8F5C0E948C052AC03F
S11309B08C2D89508A3568F48D2D6C2F0E94240665
S11309C0E92E805D0E948C058E2D805D0E948C0531
S11309D019C0A3E6AD15B0F48D2D6B2D0E9424062D
S11309E0805D0E948C058D2D6C2F0E942406E92EBB
S11309F00E942406892F805D0E948C058E2D805DC7
S1130A000E948C058FEF94E3ACE081509040A040AD
S1130A10E1F700C00000CD2CDCCE81E465E00E944B
S1130A204D00813009F0D5CE65E00E94030680E2D6
S1130A300E948C0581E064E00E94030680E20E942B
S1130A408C0581E063E00E94030680E30E948C052C
S1130A5081E06CE00E94030680E20E948C0581E044
S1130A606BE00E94030680E20E948C0581E06C2FFB
S1130A700E94030680E30E948C0582E065E00E94E8
S1130A80030680E20E948C0582E064E00E94030673
S1130A9080E20E948C0582E063E00E94030680E30A
S1130AA00E948C0582E06CE00E94030680E20E94B2
S1130AB08C0582E06BE00E94030680E20E948C05B4
S1130AC082E06C2F0E94030680E30E948C058FEF66
S1130AD099E6A8E181509040A040E1F700C00000F1
S1130AE0CD2EFD2E0D2F1D2F74CE82E460E041E04B
S1130AF00E94E9008FE99FE00197F1F700C0000030
S1130B0082E460E040E00E94E9008FE99FE0019701
S1130B10F1F700C000000895682F84E40E944E029B
S1130B2082E461E041E00E94E9000E9475050895B5
S1130B30682F84E40E944E0282E461E040E00E9457
S1130B40E9000E94750508958FEF91EEA4E08150AD
S1130B509040A040E1F700C0000084E46FEF0E94E1
S1130B602F0282E460E041E00E94580082E461E0E8
S1130B7041E00E94580082E462E041E00E94580093
S1130B8082E462E040E00E94E90088E30E94980564
S1130B90AFECB7E01197F1F700C000008CE00E94C1
S1130BA098058FEC97E00197F1F700C0000081E011
S1130BB00E949805AFE1BEE41197F1F700C0000070
S1130BC086E00E9498058FEC97E00197F1F700C04A
S1130BD00000089581E00E9498058FE19EE401974A
S1130BE0F1F700C000000895CF93DF93EC018881F2
S1130BF0882331F021960E948C0589918823D9F7A6
S1130C00DF91CF910895282F2150223070F4613163
S1130C1070F4662371F0813019F4962F91580AC04C
S1130C20823041F4962F915405C090E803C090E8B7
S1130C3001C090E8892F0E9498058FEC97E00197F6
S1130C40F1F700C000000895991B79E004C0991FD2
S1130C50961708F0961B881F7A95C9F78095089512
S1070C60F894FFCF32
S1130C64413A3000423A3000433A3000443A3000CA
S9030000FC
