S00B000045564D2E7372656331
S11300000C942A000C9447000C9447000C9447006D
S11300100C9447000C9447000C9447000C94470040
S11300200C9447000C9447000C9447000C94470030
S11300300C9447000C9447000C9447000C94470020
S11300400C9447000C9447000C9447000C94470010
S11300500C94470011241FBECFE5D8E0DEBFCDBF0E
S113006010E0A0E6B0E0EEE8FAE002C005900D92E0
S1130070A037B107D9F710E0A0E7B0E001C01D92A6
S1130080A037B107E1F70E9418040C9445050C94BD
S1130090000040E00E94580008950E94C70108959E
S11300A041E00E94B302089540E00E94B302089523
S11300B0843409F471C0853448F4823499F183346A
S11300C008F04DC0813409F083C00FC0823651F16D
S11300D0833620F4813609F07BC007C0833609F4E7
S11300E03EC0843609F074C057C0413069F42AB365
S11300F081E090E0AC0102C0440F551F6A95E2F71D
S1130100BA01622B6ABB08952AB381E090E0AC0186
S113011002C0440F551F6A95E2F7BA016095622345
S11301206ABB0895413069F427B381E090E0AC01E3
S113013002C0440F551F6A95E2F7BA01622B67BBF0
S1130140089527B381E090E0AC0102C0440F551F2D
S11301506A95E2F7BA016095622367BB089541305E
S113016069F424B381E090E0AC0102C0440F551F50
S11301706A95E2F7BA01622B64BB089524B381E067
S113018090E0AC0102C0440F551F6A95E2F7BA0132
S11301906095622364BB0895413069F421B381E022
S11301A090E0AC0102C0440F551F6A95E2F7BA0112
S11301B0622B61BB089521B381E090E0AC0102C0E1
S11301C0440F551F6A95E2F7BA016095622361BB3B
S11301D00895843409F471C0853448F4823499F163
S11301E0833408F04DC0813409F083C00FC08236D7
S11301F051F1833620F4813609F07BC007C0833681
S113020009F43EC0843609F074C057C0413069F423
S11302102BB381E090E0AC0102C0440F551F6A95F6
S1130220E2F7BA01622B6BBB08952BB381E090E037
S1130230AC0102C0440F551F6A95E2F7BA016095FC
S113024062236BBB0895413069F428B381E090E0E8
S1130250AC0102C0440F551F6A95E2F7BA01622B44
S113026068BB089528B381E090E0AC0102C0440F5C
S1130270551F6A95E2F7BA016095622368BB089539
S1130280413069F425B381E090E0AC0102C0440F31
S1130290551F6A95E2F7BA01622B65BB089525B331
S11302A081E090E0AC0102C0440F551F6A95E2F76B
S11302B0BA016095622365BB0895413069F422B3A5
S11302C081E090E0AC0102C0440F551F6A95E2F74B
S11302D0BA01622B62BB089522B381E090E0AC01C5
S11302E002C0440F551F6A95E2F7BA016095622374
S11302F062BB0895843409F43DC0853440F48234EB
S1130300F9F0833450F5813409F040C00CC08236D2
S1130310B9F0833618F48136C9F505C08336E9F09F
S11303208436A1F527C02BB381E090E0AC0102C074
S1130330440F551F6A95E2F7BA0162276BBB089513
S113034028B381E090E0AC0102C0440F551F6A95C8
S1130350E2F7BA01622768BB089525B381E090E013
S1130360AC0102C0440F551F6A95E2F7BA01622737
S113037065BB089522B381E090E0AC0102C0440F54
S1130380551F6A95E2F7BA01622762BB0895843467
S113039009F451C0853440F4823439F18334C0F512
S11303A0813409F05AC00EC08236F9F0833620F445
S11303B0813609F052C006C0833651F1843609F003
S11303C04CC039C029B381E090E0062E02C0880FEA
S11303D0991F0A94E2F730E08223932302C0969592
S11303E087956A95E2F7982F38C026B381E090E0AC
S11303F0062E02C0880F991F0A94E2F730E0822388
S1130400932302C0969587956A95E2F7982F25C0A5
S113041023B381E090E0062E02C0880F991F0A944E
S1130420E2F730E08223932302C0969587956A957C
S1130430E2F7982F12C020B381E090E0062E02C0AC
S1130440880F991F0A94E2F730E08223932302C0B5
S1130450969587956A95E2F7982F892F08958434A5
S1130460D9F0853438F4823499F0833498F48134A3
S1130470A1F40CC0823661F0833618F4813669F435
S113048005C0833639F0843641F406C06ABB08954A
S113049067BB089564BB089561BB08958434D9F0A3
S11304A0853438F4823499F0833498F48134A1F497
S11304B00CC0823661F0833618F4813669F405C0C5
S11304C0833639F0843641F406C06BBB089568BBAB
S11304D0089565BB089562BB0895843409F1853499
S11304E038F48234A9F08334B8F48134E1F40CC0D4
S11304F0823671F0833618F48136A9F405C0833648
S113050059F0843681F40CC08BB380958BBB08956D
S113051088B3809588BB089585B3809585BB08957D
S113052082B3809582BB08958434D9F0853438F43D
S1130530823499F0833498F48134A1F40CC0823667
S113054061F0833618F4813669F405C0833639F0D6
S1130550843641F406C089B3089586B3089583B3FD
S1130560089580B30895843409F471C0853448F43F
S1130570823499F1833408F04DC0813409F083C08A
S11305800FC0823651F1833620F4813609F07BC0E6
S113059007C0833609F43EC0843609F074C057C0DE
S11305A0413069F42BB381E090E0AC0102C0440F08
S11305B0551F6A95E2F7BA01622B6BBB08952BB302
S11305C081E090E0AC0102C0440F551F6A95E2F748
S11305D0BA01609562236BBB0895413069F428B376
S11305E081E090E0AC0102C0440F551F6A95E2F728
S11305F0BA01622B68BB089528B381E090E0AC0196
S113060002C0440F551F6A95E2F7BA016095622350
S113061068BB0895413069F425B381E090E0AC01F2
S113062002C0440F551F6A95E2F7BA01622B65BBFD
S1130630089525B381E090E0AC0102C0440F551F3A
S11306406A95E2F7BA016095622365BB089541306B
S113065069F422B381E090E0AC0102C0440F551F5D
S11306606A95E2F7BA01622B62BB089522B381E076
S113067090E0AC0102C0440F551F6A95E2F7BA013D
S11306806095622362BB08956F70843451F18534A0
S113069038F48234C1F08334E8F4813441F50CC079
S11306A0823689F0833618F4813609F505C083361D
S11306B089F08436E1F415C08BB3807F8BBB8BB398
S11306C0682B6BBB089588B3807F88BB88B3682B85
S11306D068BB089585B3807F85BB85B3682B65BBF4
S11306E0089582B3807F82BB82B3682B62BB089576
S11306F06295607F843451F1853438F48234C1F0DA
S11307008334E8F4813441F50CC0823689F08336B1
S113071018F4813609F505C0833689F08436E1F48E
S113072015C08BB38F708BBB8BB3682B6BBB0895D9
S113073088B38F7088BB88B3682B68BB089585B372
S11307408F7085BB85B3682B65BB089582B38F70AA
S113075082BB82B3682B62BB08951F93CF93DF9350
S1130760EC01862F98819F5F9883642F0E9418055F
S113077088818A3020F4805D0E94A1042FC0982FC4
S11307809A509A3580F41AE0612F0E943905805DF1
S11307900E94A1048881612F0E943905892F805D00
S11307A00E94A1041BC08436C8F064E60E94390587
S11307B0805D0E94A10488811AE0612F0E9439059E
S11307C00E943905892F805D0E94A1048881612FD0
S11307D00E943905892F805D0E94A1048FEF94E364
S11307E0ACE081509040A040E1F700C00000DF91F0
S11307F0CF911F91089580E690E00E94090581E061
S113080068E00E94180584E690E00E94090582E0F1
S113081061E00E94180588E690E00E94090582E0E4
S113082068E00E9418058CE690E00E94090508958E
S1130830CF93DF9300D000D0CDB7DEB719821A82F0
S11308401B821C820E94B90481E461E00E94490079
S113085081E462E00E94490081E463E00E9449006F
S113086081E464E00E94490081E465E00E9449005B
S11308700E94FB0381E461E00E944D00813039F461
S1130880CE01019661E043E00E94AD03F3CF81E421
S113089062E00E944D00813039F4CE01029661E09D
S11308A04AE00E94AD03E6CF81E463E00E944D007C
S11308B0813039F4CE01039662E043E00E94AD0337
S11308C0D9CF81E464E00E944D00813039F4CE0137
S11308D0049662E04AE00E94AD03CCCF81E465E077
S11308E00E944D00813031F61C821B821A821982CB
S11308F00E94FF0481E061E00E9418050E94FB034E
S11309008FEF99E6A8E181509040A040E1F700C044
S11309100000B0CF82E460E041E00E94E9008FE98A
S11309209FE00197F1F700C0000082E460E040E03E
S11309300E94E9008FE99FE00197F1F700C00000F1
S11309400895682F84E40E944E0282E461E041E04D
S11309500E94E9000E948A040895682F84E40E949A
S11309604E0282E461E040E00E94E9000E948A04B1
S113097008958FEF91EEA4E081509040A040E1F7FC
S113098000C0000084E46FEF0E942F0282E460E064
S113099041E00E94580082E461E041E00E94580076
S11309A082E462E041E00E94580082E462E040E0B8
S11309B00E94E90088E30E94AD04AFECB7E0119710
S11309C0F1F700C000008CE00E94AD048FEC97E0CA
S11309D00197F1F700C0000081E00E94AD04AFE18F
S11309E0BEE41197F1F700C0000086E00E94AD0458
S11309F08FEC97E00197F1F700C00000089581E0C3
S1130A000E94AD048FE19EE40197F1F700C000005D
S1130A100895CF93DF93EC018881882331F02196E8
S1130A200E94A10489918823D9F7DF91CF91089579
S1130A30282F2150223070F4613170F4662371F054
S1130A40813019F4962F91580AC0823041F4962FC0
S1130A50915405C090E803C090E801C090E8892F44
S1130A600E94AD048FEC97E00197F1F700C00000FD
S1130A700895991B79E004C0991F961708F0961BF6
S1110A80881F7A95C9F780950895F894FFCFE2
S1130A8E413A3000423A3000433A3000443A3000A2
S9030000FC
